{
  "_format": "hh-sol-artifact-1",
  "contractName": "PrivatePass",
  "sourceName": "contracts/privatePass.sol",
  "abi": [
    {
      "anonymous": false,
      "inputs": [
        {
          "indexed": false,
          "internalType": "string",
          "name": "id",
          "type": "string"
        },
        {
          "indexed": true,
          "internalType": "address",
          "name": "user",
          "type": "address"
        },
        {
          "indexed": false,
          "internalType": "address",
          "name": "accessor",
          "type": "address"
        }
      ],
      "name": "AccessGranted",
      "type": "event"
    },
    {
      "anonymous": false,
      "inputs": [
        {
          "indexed": false,
          "internalType": "string",
          "name": "id",
          "type": "string"
        },
        {
          "indexed": true,
          "internalType": "address",
          "name": "user",
          "type": "address"
        },
        {
          "indexed": false,
          "internalType": "address",
          "name": "accessor",
          "type": "address"
        }
      ],
      "name": "AccessRevoked",
      "type": "event"
    },
    {
      "anonymous": false,
      "inputs": [
        {
          "indexed": false,
          "internalType": "string",
          "name": "id",
          "type": "string"
        },
        {
          "indexed": false,
          "internalType": "string",
          "name": "aggregateJson",
          "type": "string"
        }
      ],
      "name": "AggregateUpdated",
      "type": "event"
    },
    {
      "anonymous": false,
      "inputs": [
        {
          "indexed": false,
          "internalType": "string",
          "name": "id",
          "type": "string"
        },
        {
          "indexed": true,
          "internalType": "address",
          "name": "user",
          "type": "address"
        },
        {
          "indexed": false,
          "internalType": "string",
          "name": "key",
          "type": "string"
        }
      ],
      "name": "DataStored",
      "type": "event"
    },
    {
      "inputs": [
        {
          "internalType": "string",
          "name": "_id",
          "type": "string"
        }
      ],
      "name": "getAggregateData",
      "outputs": [
        {
          "internalType": "string",
          "name": "",
          "type": "string"
        }
      ],
      "stateMutability": "view",
      "type": "function"
    },
    {
      "inputs": [
        {
          "internalType": "string",
          "name": "_id",
          "type": "string"
        }
      ],
      "name": "getPrivateData",
      "outputs": [
        {
          "internalType": "string",
          "name": "",
          "type": "string"
        }
      ],
      "stateMutability": "view",
      "type": "function"
    },
    {
      "inputs": [
        {
          "internalType": "string",
          "name": "_id",
          "type": "string"
        },
        {
          "internalType": "address",
          "name": "_newAccessor",
          "type": "address"
        }
      ],
      "name": "grantAccess",
      "outputs": [],
      "stateMutability": "nonpayable",
      "type": "function"
    },
    {
      "inputs": [
        {
          "internalType": "string",
          "name": "_id",
          "type": "string"
        },
        {
          "internalType": "address",
          "name": "_accessor",
          "type": "address"
        }
      ],
      "name": "revokeAccess",
      "outputs": [],
      "stateMutability": "nonpayable",
      "type": "function"
    },
    {
      "inputs": [
        {
          "internalType": "string",
          "name": "_id",
          "type": "string"
        },
        {
          "internalType": "string[]",
          "name": "_keys",
          "type": "string[]"
        },
        {
          "internalType": "string[]",
          "name": "_values",
          "type": "string[]"
        },
        {
          "internalType": "address[]",
          "name": "_allowedAddresses",
          "type": "address[]"
        }
      ],
      "name": "storePrivateData",
      "outputs": [],
      "stateMutability": "nonpayable",
      "type": "function"
    }
  ],
  "bytecode": "0x608060405234801561001057600080fd5b50612cce806100206000396000f3fe608060405234801561001057600080fd5b50600436106100575760003560e01c806325fc9a8b1461005c578063824c080e14610078578063dfe0b5fe146100a8578063f20a4acf146100c4578063f37c215e146100f4575b600080fd5b61007660048036038101906100719190611eb7565b610110565b005b610092600480360381019061008d9190611e22565b61080d565b60405161009f9190612550565b60405180910390f35b6100c260048036038101906100bd9190611e63565b61081f565b005b6100de60048036038101906100d99190611e22565b610a6b565b6040516100eb9190612550565b60405180910390f35b61010e60048036038101906101099190611e63565b610cc4565b005b600080600090506000805b60008860405161012b91906123a3565b90815260200160405180910390208054905081101561021e573373ffffffffffffffffffffffffffffffffffffffff1660008960405161016b91906123a3565b908152602001604051809103902082815481106101b1577f4e487b7100000000000000000000000000000000000000000000000000000000600052603260045260246000fd5b906000526020600020906004020160000160009054906101000a900473ffffffffffffffffffffffffffffffffffffffff1673ffffffffffffffffffffffffffffffffffffffff16141561020b576001925080915061021e565b808061021690612b5e565b91505061011b565b5081156102905760008760405161023591906123a3565b9081526020016040518091039020818154811061027b577f4e487b7100000000000000000000000000000000000000000000000000000000600052603260045260246000fd5b906000526020600020906004020192506104c5565b6000876040516102a091906123a3565b9081526020016040518091039020600181600181540180825580915050039060005260206000209050506000876040516102da91906123a3565b908152602001604051809103902060016000896040516102fa91906123a3565b9081526020016040518091039020805490506103169190612a39565b8154811061034d577f4e487b7100000000000000000000000000000000000000000000000000000000600052603260045260246000fd5b90600052602060002090600402019250338360000160006101000a81548173ffffffffffffffffffffffffffffffffffffffff021916908373ffffffffffffffffffffffffffffffffffffffff1602179055506000845114156104095760018360030160003373ffffffffffffffffffffffffffffffffffffffff1673ffffffffffffffffffffffffffffffffffffffff16815260200190815260200160002060006101000a81548160ff0219169083151502179055506104c4565b60005b84518110156104c2576001846003016000878481518110610456577f4e487b7100000000000000000000000000000000000000000000000000000000600052603260045260246000fd5b602002602001015173ffffffffffffffffffffffffffffffffffffffff1673ffffffffffffffffffffffffffffffffffffffff16815260200190815260200160002060006101000a81548160ff02191690831515021790555080806104ba90612b5e565b91505061040c565b505b5b60005b86518110156107bc5785818151811061050a577f4e487b7100000000000000000000000000000000000000000000000000000000600052603260045260246000fd5b60200260200101518460010188838151811061054f577f4e487b7100000000000000000000000000000000000000000000000000000000600052603260045260246000fd5b602002602001015160405161056491906123a3565b90815260200160405180910390209080519060200190610585929190611be5565b508261060a57836002018782815181106105c8577f4e487b7100000000000000000000000000000000000000000000000000000000600052603260045260246000fd5b6020026020010151908060018154018082558091505060019003906000526020600020016000909190919091509080519060200190610608929190611be5565b505b3373ffffffffffffffffffffffffffffffffffffffff167fea4287719a986faa394b74196bff840cab55fe41df2d07e0a7e39b2f377c9be18989848151811061067c577f4e487b7100000000000000000000000000000000000000000000000000000000600052603260045260246000fd5b60200260200101516040516106929291906125a2565b60405180910390a26000806106e68884815181106106d9577f4e487b7100000000000000000000000000000000000000000000000000000000600052603260045260246000fd5b6020026020010151610f11565b9150915080156107a757600060018b60405161070291906123a3565b90815260200160405180910390208a8581518110610749577f4e487b7100000000000000000000000000000000000000000000000000000000600052603260045260246000fd5b602002602001015160405161075e91906123a3565b90815260200160405180910390209050828160000160008282546107829190612744565b92505081905550600181600101600082825461079e9190612744565b92505081905550505b505080806107b490612b5e565b9150506104c8565b5060006107c8886110bd565b90507f4313ed19eb7d84907129925200352be86dcf3de0dec15c75cd820ec7cf71843d88826040516107fb9291906125a2565b60405180910390a15050505050505050565b6060610818826110bd565b9050919050565b60005b60008360405161083291906123a3565b908152602001604051809103902080549050811015610a2b573373ffffffffffffffffffffffffffffffffffffffff1660008460405161087291906123a3565b908152602001604051809103902082815481106108b8577f4e487b7100000000000000000000000000000000000000000000000000000000600052603260045260246000fd5b906000526020600020906004020160000160009054906101000a900473ffffffffffffffffffffffffffffffffffffffff1673ffffffffffffffffffffffffffffffffffffffff161415610a18576000808460405161091791906123a3565b9081526020016040518091039020828154811061095d577f4e487b7100000000000000000000000000000000000000000000000000000000600052603260045260246000fd5b906000526020600020906004020160030160008473ffffffffffffffffffffffffffffffffffffffff1673ffffffffffffffffffffffffffffffffffffffff16815260200190815260200160002060006101000a81548160ff0219169083151502179055503373ffffffffffffffffffffffffffffffffffffffff167fd31b40d0e5dc0e720f13cdff5452df15cb4226cbbc509a4a141cb4c3e09bf14b8484604051610a0a929190612572565b60405180910390a250610a67565b8080610a2390612b5e565b915050610822565b506040517f08c379a0000000000000000000000000000000000000000000000000000000008152600401610a5e906125d9565b60405180910390fd5b5050565b606060006040518060400160405280600181526020017f5b0000000000000000000000000000000000000000000000000000000000000081525090506000805b600085604051610abb91906123a3565b908152602001604051809103902080549050811015610c575760008086604051610ae591906123a3565b90815260200160405180910390208281548110610b2b577f4e487b7100000000000000000000000000000000000000000000000000000000600052603260045260246000fd5b906000526020600020906004020190503373ffffffffffffffffffffffffffffffffffffffff168160000160009054906101000a900473ffffffffffffffffffffffffffffffffffffffff1673ffffffffffffffffffffffffffffffffffffffff161480610be457508060030160003373ffffffffffffffffffffffffffffffffffffffff1673ffffffffffffffffffffffffffffffffffffffff16815260200190815260200160002060009054906101000a900460ff165b15610c43578215610c125783604051602001610c00919061250c565b60405160208183030381529060405293505b83610c1c82611489565b604051602001610c2d9291906123ba565b6040516020818303038152906040529350600192505b508080610c4f90612b5e565b915050610aab565b5080610c98576040517f08c379a0000000000000000000000000000000000000000000000000000000008152600401610c8f906125f9565b60405180910390fd5b81604051602001610ca991906124ea565b60405160208183030381529060405291508192505050919050565b60005b600083604051610cd791906123a3565b908152602001604051809103902080549050811015610ed1573373ffffffffffffffffffffffffffffffffffffffff16600084604051610d1791906123a3565b90815260200160405180910390208281548110610d5d577f4e487b7100000000000000000000000000000000000000000000000000000000600052603260045260246000fd5b906000526020600020906004020160000160009054906101000a900473ffffffffffffffffffffffffffffffffffffffff1673ffffffffffffffffffffffffffffffffffffffff161415610ebe576001600084604051610dbd91906123a3565b90815260200160405180910390208281548110610e03577f4e487b7100000000000000000000000000000000000000000000000000000000600052603260045260246000fd5b906000526020600020906004020160030160008473ffffffffffffffffffffffffffffffffffffffff1673ffffffffffffffffffffffffffffffffffffffff16815260200190815260200160002060006101000a81548160ff0219169083151502179055503373ffffffffffffffffffffffffffffffffffffffff167ffbc6d0108d2bcc402dccd9e59a550c2ec2c25fde70262696fe3d257d59c9cf188484604051610eb0929190612572565b60405180910390a250610f0d565b8080610ec990612b5e565b915050610cc7565b506040517f08c379a0000000000000000000000000000000000000000000000000000000008152600401610f0490612619565b60405180910390fd5b5050565b600080600083905060008060005b83518110156110ad57603060f81b848281518110610f66577f4e487b7100000000000000000000000000000000000000000000000000000000600052603260045260246000fd5b602001015160f81c60f81b7effffffffffffffffffffffffffffffffffffffffffffffffffffffffffffff19161015801561100a5750603960f81b848281518110610fda577f4e487b7100000000000000000000000000000000000000000000000000000000600052603260045260246000fd5b602001015160f81c60f81b7effffffffffffffffffffffffffffffffffffffffffffffffffffffffffffff191611155b1561108a57603060ff1684828151811061104d577f4e487b7100000000000000000000000000000000000000000000000000000000600052603260045260246000fd5b602001015160f81c60f81b60f81c60ff166110689190612a39565b600a8461107591906129a4565b61107f9190612744565b92506001915061109a565b60008095509550505050506110b8565b80806110a590612b5e565b915050610f1f565b508181945094505050505b915091565b606060006001905060006040518060400160405280600181526020017f7b0000000000000000000000000000000000000000000000000000000000000081525090506000600a60008660405161111391906123a3565b90815260200160405180910390208054905061112f91906129a4565b67ffffffffffffffff81111561116e577f4e487b7100000000000000000000000000000000000000000000000000000000600052604160045260246000fd5b6040519080825280602002602001820160405280156111a157816020015b606081526020019060019003908161118c5790505b5090506000805b6000876040516111b891906123a3565b90815260200160405180910390208054905081101561145a57600080886040516111e291906123a3565b90815260200160405180910390208281548110611228577f4e487b7100000000000000000000000000000000000000000000000000000000600052603260045260246000fd5b9060005260206000209060040201905060005b8160020180549050811015611445576000826002018281548110611288577f4e487b7100000000000000000000000000000000000000000000000000000000600052603260045260246000fd5b90600052602060002001805461129d90612b2c565b80601f01602080910402602001604051908101604052809291908181526020018280546112c990612b2c565b80156113165780601f106112eb57610100808354040283529160200191611316565b820191906000526020600020905b8154815290600101906020018083116112f957829003601f168201915b505050505090506113288686836116a8565b156113335750611432565b8086868151811061136d577f4e487b7100000000000000000000000000000000000000000000000000000000600052603260045260246000fd5b6020026020010181905250848061138390612b5e565b955050600060018b60405161139891906123a3565b9081526020016040518091039020826040516113b491906123a3565b90815260200160405180910390209050600381600101541061142f57886113f857876040516020016113e6919061250c565b60405160208183030381529060405297505b87826114078360000154611776565b60405160200161141993929190612481565b6040516020818303038152906040529750600098505b50505b808061143d90612b5e565b91505061123b565b5050808061145290612b5e565b9150506111a8565b508260405160200161146c91906124c8565b604051602081830303815290604052925082945050505050919050565b606060006040518060400160405280600b81526020017f7b226f776e6572223a20220000000000000000000000000000000000000000008152509050806114f38460000160009054906101000a900473ffffffffffffffffffffffffffffffffffffffff1661194b565b6040516020016115049291906123de565b604051602081830303815290604052905060005b836002018054905081101561167f5760008111156115535781604051602001611541919061250c565b60405160208183030381529060405291505b6000846002018281548110611591577f4e487b7100000000000000000000000000000000000000000000000000000000600052603260045260246000fd5b9060005260206000200180546115a690612b2c565b80601f01602080910402602001604051908101604052809291908181526020018280546115d290612b2c565b801561161f5780601f106115f45761010080835404028352916020019161161f565b820191906000526020600020905b81548152906001019060200180831161160257829003601f168201915b505050505090508281866001018360405161163a91906123a3565b908152602001604051809103902060405160200161165a9392919061242f565b604051602081830303815290604052925050808061167790612b5e565b915050611518565b5080604051602001611691919061240d565b604051602081830303815290604052915050919050565b600080600090505b8381101561176957826040516020016116c991906123a3565b60405160208183030381529060405280519060200120858281518110611718577f4e487b7100000000000000000000000000000000000000000000000000000000600052603260045260246000fd5b602002602001015160405160200161173091906123a3565b60405160208183030381529060405280519060200120141561175657600191505061176f565b808061176190612b5e565b9150506116b0565b50600090505b9392505050565b606060008214156117be576040518060400160405280600181526020017f30000000000000000000000000000000000000000000000000000000000000008152509050611946565b600082905060005b600082146117f05780806117d990612b5e565b915050600a826117e991906127d1565b91506117c6565b60008167ffffffffffffffff811115611832577f4e487b7100000000000000000000000000000000000000000000000000000000600052604160045260246000fd5b6040519080825280601f01601f1916602001820160405280156118645781602001600182028036833780820191505090505b50905060008290505b6000861461193e576001816118829190612a39565b90506000600a808861189491906127d1565b61189e91906129a4565b876118a99190612a39565b60306118b5919061279a565b905060008160f81b9050808484815181106118f9577f4e487b7100000000000000000000000000000000000000000000000000000000600052603260045260246000fd5b60200101907effffffffffffffffffffffffffffffffffffffffffffffffffffffffffffff1916908160001a905350600a8861193591906127d1565b9750505061186d565b819450505050505b919050565b60606000602867ffffffffffffffff811115611990577f4e487b7100000000000000000000000000000000000000000000000000000000600052604160045260246000fd5b6040519080825280601f01601f1916602001820160405280156119c25781602001600182028036833780820191505090505b50905060005b6014811015611b765760008160136119e09190612a39565b60086119ec91906129a4565b60026119f89190612886565b8573ffffffffffffffffffffffffffffffffffffffff16611a1991906127d1565b60f81b9050600060108260f81c611a309190612802565b60f81b905060008160f81c6010611a4791906129fe565b8360f81c611a559190612a6d565b60f81b9050611a6382611b9f565b85856002611a7191906129a4565b81518110611aa8577f4e487b7100000000000000000000000000000000000000000000000000000000600052603260045260246000fd5b60200101907effffffffffffffffffffffffffffffffffffffffffffffffffffffffffffff1916908160001a905350611ae081611b9f565b856001866002611af091906129a4565b611afa9190612744565b81518110611b31577f4e487b7100000000000000000000000000000000000000000000000000000000600052603260045260246000fd5b60200101907effffffffffffffffffffffffffffffffffffffffffffffffffffffffffffff1916908160001a9053505050508080611b6e90612b5e565b9150506119c8565b5080604051602001611b88919061252e565b604051602081830303815290604052915050919050565b6000600a8260f81c60ff161015611bca5760308260f81c611bc0919061279a565b60f81b9050611be0565b60578260f81c611bda919061279a565b60f81b90505b919050565b828054611bf190612b2c565b90600052602060002090601f016020900481019282611c135760008555611c5a565b82601f10611c2c57805160ff1916838001178555611c5a565b82800160010185558215611c5a579182015b82811115611c59578251825591602001919060010190611c3e565b5b509050611c679190611c6b565b5090565b5b80821115611c84576000816000905550600101611c6c565b5090565b6000611c9b611c968461266a565b612639565b90508083825260208201905082856020860282011115611cba57600080fd5b60005b85811015611cea5781611cd08882611d8f565b845260208401935060208301925050600181019050611cbd565b5050509392505050565b6000611d07611d0284612696565b612639565b9050808382526020820190508260005b85811015611d475781358501611d2d8882611df8565b845260208401935060208301925050600181019050611d17565b5050509392505050565b6000611d64611d5f846126c2565b612639565b905082815260208101848484011115611d7c57600080fd5b611d87848285612aea565b509392505050565b600081359050611d9e81612c81565b92915050565b600082601f830112611db557600080fd5b8135611dc5848260208601611c88565b91505092915050565b600082601f830112611ddf57600080fd5b8135611def848260208601611cf4565b91505092915050565b600082601f830112611e0957600080fd5b8135611e19848260208601611d51565b91505092915050565b600060208284031215611e3457600080fd5b600082013567ffffffffffffffff811115611e4e57600080fd5b611e5a84828501611df8565b91505092915050565b60008060408385031215611e7657600080fd5b600083013567ffffffffffffffff811115611e9057600080fd5b611e9c85828601611df8565b9250506020611ead85828601611d8f565b9150509250929050565b60008060008060808587031215611ecd57600080fd5b600085013567ffffffffffffffff811115611ee757600080fd5b611ef387828801611df8565b945050602085013567ffffffffffffffff811115611f1057600080fd5b611f1c87828801611dce565b935050604085013567ffffffffffffffff811115611f3957600080fd5b611f4587828801611dce565b925050606085013567ffffffffffffffff811115611f6257600080fd5b611f6e87828801611da4565b91505092959194509250565b611f8381612aa1565b82525050565b6000611f9482612707565b611f9e818561271d565b9350611fae818560208601612af9565b80840191505092915050565b6000611fc582612712565b611fcf8185612728565b9350611fdf818560208601612af9565b611fe881612c63565b840191505092915050565b6000611ffe82612712565b6120088185612739565b9350612018818560208601612af9565b80840191505092915050565b6000815461203181612b2c565b61203b8186612739565b9450600182166000811461205657600181146120675761209a565b60ff1983168652818601935061209a565b612070856126f2565b60005b8381101561209257815481890152600182019150602081019050612073565b838801955050505b50505092915050565b60006120b0602083612728565b91507f4f6e6c7920746865206f776e65722063616e207265766f6b65206163636573736000830152602082019050919050565b60006120f0600283612739565b91507f7d7d0000000000000000000000000000000000000000000000000000000000006000830152600282019050919050565b6000612130600283612739565b91507f30780000000000000000000000000000000000000000000000000000000000006000830152600282019050919050565b6000612170600483612739565b91507f223a2022000000000000000000000000000000000000000000000000000000006000830152600482019050919050565b60006121b0600c83612739565b91507f222c202264617461223a207b00000000000000000000000000000000000000006000830152600c82019050919050565b60006121f0600183612739565b91507f22000000000000000000000000000000000000000000000000000000000000006000830152600182019050919050565b6000612230600183612739565b91507f7d000000000000000000000000000000000000000000000000000000000000006000830152600182019050919050565b6000612270601d83612728565b91507f4163636573732064656e696564206f72204944206e6f7420666f756e640000006000830152602082019050919050565b60006122b0600383612739565b91507f223a2000000000000000000000000000000000000000000000000000000000006000830152600382019050919050565b60006122f0600183612739565b91507f5d000000000000000000000000000000000000000000000000000000000000006000830152600182019050919050565b6000612330600283612739565b91507f2c200000000000000000000000000000000000000000000000000000000000006000830152600282019050919050565b6000612370601f83612728565b91507f4f6e6c7920746865206f776e65722063616e206772616e7420616363657373006000830152602082019050919050565b60006123af8284611ff3565b915081905092915050565b60006123c68285611ff3565b91506123d28284611ff3565b91508190509392505050565b60006123ea8285611ff3565b91506123f68284611ff3565b9150612401826121a3565b91508190509392505050565b60006124198284611ff3565b9150612424826120e3565b915081905092915050565b600061243b8286611ff3565b9150612446826121e3565b91506124528285611ff3565b915061245d82612163565b91506124698284612024565b9150612474826121e3565b9150819050949350505050565b600061248d8286611ff3565b9150612498826121e3565b91506124a48285611ff3565b91506124af826122a3565b91506124bb8284611ff3565b9150819050949350505050565b60006124d48284611ff3565b91506124df82612223565b915081905092915050565b60006124f68284611ff3565b9150612501826122e3565b915081905092915050565b60006125188284611ff3565b915061252382612323565b915081905092915050565b600061253982612123565b91506125458284611f89565b915081905092915050565b6000602082019050818103600083015261256a8184611fba565b905092915050565b6000604082019050818103600083015261258c8185611fba565b905061259b6020830184611f7a565b9392505050565b600060408201905081810360008301526125bc8185611fba565b905081810360208301526125d08184611fba565b90509392505050565b600060208201905081810360008301526125f2816120a3565b9050919050565b6000602082019050818103600083015261261281612263565b9050919050565b6000602082019050818103600083015261263281612363565b9050919050565b6000604051905081810181811067ffffffffffffffff821117156126605761265f612c34565b5b8060405250919050565b600067ffffffffffffffff82111561268557612684612c34565b5b602082029050602081019050919050565b600067ffffffffffffffff8211156126b1576126b0612c34565b5b602082029050602081019050919050565b600067ffffffffffffffff8211156126dd576126dc612c34565b5b601f19601f8301169050602081019050919050565b60008190508160005260206000209050919050565b600081519050919050565b600081519050919050565b600081905092915050565b600082825260208201905092915050565b600081905092915050565b600061274f82612ad3565b915061275a83612ad3565b9250827fffffffffffffffffffffffffffffffffffffffffffffffffffffffffffffffff0382111561278f5761278e612ba7565b5b828201905092915050565b60006127a582612add565b91506127b083612add565b92508260ff038211156127c6576127c5612ba7565b5b828201905092915050565b60006127dc82612ad3565b91506127e783612ad3565b9250826127f7576127f6612bd6565b5b828204905092915050565b600061280d82612add565b915061281883612add565b92508261282857612827612bd6565b5b828204905092915050565b6000808291508390505b600185111561287d5780860481111561285957612858612ba7565b5b60018516156128685780820291505b808102905061287685612c74565b945061283d565b94509492505050565b600061289182612ad3565b915061289c83612ad3565b92506128c97fffffffffffffffffffffffffffffffffffffffffffffffffffffffffffffffff84846128d1565b905092915050565b6000826128e1576001905061299d565b816128ef576000905061299d565b8160018114612905576002811461290f5761293e565b600191505061299d565b60ff84111561292157612920612ba7565b5b8360020a91508482111561293857612937612ba7565b5b5061299d565b5060208310610133831016604e8410600b84101617156129735782820a90508381111561296e5761296d612ba7565b5b61299d565b6129808484846001612833565b9250905081840481111561299757612996612ba7565b5b81810290505b9392505050565b60006129af82612ad3565b91506129ba83612ad3565b9250817fffffffffffffffffffffffffffffffffffffffffffffffffffffffffffffffff04831182151516156129f3576129f2612ba7565b5b828202905092915050565b6000612a0982612add565b9150612a1483612add565b92508160ff0483118215151615612a2e57612a2d612ba7565b5b828202905092915050565b6000612a4482612ad3565b9150612a4f83612ad3565b925082821015612a6257612a61612ba7565b5b828203905092915050565b6000612a7882612add565b9150612a8383612add565b925082821015612a9657612a95612ba7565b5b828203905092915050565b6000612aac82612ab3565b9050919050565b600073ffffffffffffffffffffffffffffffffffffffff82169050919050565b6000819050919050565b600060ff82169050919050565b82818337600083830152505050565b60005b83811015612b17578082015181840152602081019050612afc565b83811115612b26576000848401525b50505050565b60006002820490506001821680612b4457607f821691505b60208210811415612b5857612b57612c05565b5b50919050565b6000612b6982612ad3565b91507fffffffffffffffffffffffffffffffffffffffffffffffffffffffffffffffff821415612b9c57612b9b612ba7565b5b600182019050919050565b7f4e487b7100000000000000000000000000000000000000000000000000000000600052601160045260246000fd5b7f4e487b7100000000000000000000000000000000000000000000000000000000600052601260045260246000fd5b7f4e487b7100000000000000000000000000000000000000000000000000000000600052602260045260246000fd5b7f4e487b7100000000000000000000000000000000000000000000000000000000600052604160045260246000fd5b6000601f19601f8301169050919050565b60008160011c9050919050565b612c8a81612aa1565b8114612c9557600080fd5b5056fea2646970667358221220cacefec418a848168ff8664ce621bf768911bb840dedbfe0f71b2bcd5ecd203d64736f6c63430008000033",
  "linkReferences": {},
  "deployedLinkReferences": {}
}