{
  "_format": "hh-sol-artifact-1",
  "contractName": "PublicPass",
  "sourceName": "contracts/publicPass.sol",
  "abi": [
    {
      "anonymous": false,
      "inputs": [
        {
          "indexed": false,
          "internalType": "string",
          "name": "id",
          "type": "string"
        },
        {
          "indexed": true,
          "internalType": "address",
          "name": "user",
          "type": "address"
        },
        {
          "indexed": false,
          "internalType": "string",
          "name": "key",
          "type": "string"
        }
      ],
      "name": "PublicDataStored",
      "type": "event"
    },
    {
      "inputs": [
        {
          "internalType": "string",
          "name": "",
          "type": "string"
        },
        {
          "internalType": "uint256",
          "name": "",
          "type": "uint256"
        }
      ],
      "name": "dataEntries",
      "outputs": [
        {
          "internalType": "address",
          "name": "owner",
          "type": "address"
        }
      ],
      "stateMutability": "view",
      "type": "function"
    },
    {
      "inputs": [
        {
          "internalType": "string",
          "name": "_id",
          "type": "string"
        }
      ],
      "name": "getPublicData",
      "outputs": [
        {
          "internalType": "string",
          "name": "",
          "type": "string"
        }
      ],
      "stateMutability": "view",
      "type": "function"
    },
    {
      "inputs": [
        {
          "internalType": "string",
          "name": "_id",
          "type": "string"
        },
        {
          "internalType": "string[]",
          "name": "_keys",
          "type": "string[]"
        },
        {
          "internalType": "string[]",
          "name": "_values",
          "type": "string[]"
        }
      ],
      "name": "storePublicData",
      "outputs": [],
      "stateMutability": "nonpayable",
      "type": "function"
    }
  ],
  "bytecode": "0x608060405234801561001057600080fd5b50611ec5806100206000396000f3fe608060405234801561001057600080fd5b50600436106100415760003560e01c80630518199e146100465780639544ce29146100765780639c40d9d7146100a6575b600080fd5b610060600480360381019061005b91906110e4565b6100c2565b60405161006d91906117c3565b60405180910390f35b610090600480360381019061008b91906111bc565b610484565b60405161009d91906117a8565b60405180910390f35b6100c060048036038101906100bb9190611125565b6104f5565b005b6060600080836040516100d59190611639565b90815260200160405180910390208054905011610127576040517f08c379a000000000000000000000000000000000000000000000000000000000815260040161011e9061183c565b60405180910390fd5b60006040518060400160405280600181526020017f5b0000000000000000000000000000000000000000000000000000000000000081525090506000805b6000856040516101759190611639565b908152602001604051809103902080549050811015610457576000808660405161019f9190611639565b908152602001604051809103902082815481106101e5577f4e487b7100000000000000000000000000000000000000000000000000000000600052603260045260246000fd5b90600052602060002090600302019050821561021e578360405160200161020c9190611764565b60405160208183030381529060405293505b8360405160200161022f91906116fe565b60405160208183030381529060405293508361026e8260000160009054906101000a900473ffffffffffffffffffffffffffffffffffffffff16610ca3565b60405160200161027f9291906116c4565b6040516020818303038152906040529350836040516020016102a19190611720565b604051602081830303815290604052935060005b816002018054905081101561041c5760008111156102f057846040516020016102de9190611764565b60405160208183030381529060405294505b600082600201828154811061032e577f4e487b7100000000000000000000000000000000000000000000000000000000600052603260045260246000fd5b90600052602060002001805461034390611d23565b80601f016020809104026020016040519081016040528092919081815260200182805461036f90611d23565b80156103bc5780601f10610391576101008083540402835291602001916103bc565b820191906000526020600020905b81548152906001019060200180831161039f57829003601f168201915b50505050509050858184600101836040516103d79190611639565b90815260200160405180910390206040516020016103f793929190611672565b604051602081830303815290604052955050808061041490611d55565b9150506102b5565b508360405160200161042e9190611650565b60405160208183030381529060405293506001925050808061044f90611d55565b915050610165565b50816040516020016104699190611742565b60405160208183030381529060405291508192505050919050565b60008280516020810182018051848252602083016020850120818352809550505050505081815481106104b657600080fd5b9060005260206000209060030201600091509150508060000160009054906101000a900473ffffffffffffffffffffffffffffffffffffffff16905081565b8051825114610539576040517f08c379a00000000000000000000000000000000000000000000000000000000081526004016105309061181c565b60405180910390fd5b6000805b60008560405161054d9190611639565b9081526020016040518091039020805490508110156109ba573373ffffffffffffffffffffffffffffffffffffffff1660008660405161058d9190611639565b908152602001604051809103902082815481106105d3577f4e487b7100000000000000000000000000000000000000000000000000000000600052603260045260246000fd5b906000526020600020906003020160000160009054906101000a900473ffffffffffffffffffffffffffffffffffffffff1673ffffffffffffffffffffffffffffffffffffffff1614156109a7576001915060005b84518110156109a557600080876040516106429190611639565b90815260200160405180910390208381548110610688577f4e487b7100000000000000000000000000000000000000000000000000000000600052603260045260246000fd5b90600052602060002090600302016001018683815181106106d2577f4e487b7100000000000000000000000000000000000000000000000000000000600052603260045260246000fd5b60200260200101516040516106e79190611639565b9081526020016040518091039020805461070090611d23565b905014156107ea576000866040516107189190611639565b9081526020016040518091039020828154811061075e577f4e487b7100000000000000000000000000000000000000000000000000000000600052603260045260246000fd5b90600052602060002090600302016002018582815181106107a8577f4e487b7100000000000000000000000000000000000000000000000000000000600052603260045260246000fd5b60200260200101519080600181540180825580915050600190039060005260206000200160009091909190915090805190602001906107e8929190610f3d565b505b838181518110610823577f4e487b7100000000000000000000000000000000000000000000000000000000600052603260045260246000fd5b602002602001015160008760405161083b9190611639565b90815260200160405180910390208381548110610881577f4e487b7100000000000000000000000000000000000000000000000000000000600052603260045260246000fd5b90600052602060002090600302016001018683815181106108cb577f4e487b7100000000000000000000000000000000000000000000000000000000600052603260045260246000fd5b60200260200101516040516108e09190611639565b90815260200160405180910390209080519060200190610901929190610f3d565b503373ffffffffffffffffffffffffffffffffffffffff167f9594a83b72e32236f222498e62e40093e7fe40b7e7bff2d43e9dcc05d2face3787878481518110610974577f4e487b7100000000000000000000000000000000000000000000000000000000600052603260045260246000fd5b602002602001015160405161098a9291906117e5565b60405180910390a2808061099d90611d55565b915050610628565b505b80806109b290611d55565b91505061053d565b5080610c9d57600080856040516109d19190611639565b90815260200160405180910390206001816001815401808255809150500390600052602060002090600302019050338160000160006101000a81548173ffffffffffffffffffffffffffffffffffffffff021916908373ffffffffffffffffffffffffffffffffffffffff16021790555060005b8451811015610c9a57600082600101868381518110610a8d577f4e487b7100000000000000000000000000000000000000000000000000000000600052603260045260246000fd5b6020026020010151604051610aa29190611639565b90815260200160405180910390208054610abb90611d23565b90501415610b425781600201858281518110610b00577f4e487b7100000000000000000000000000000000000000000000000000000000600052603260045260246000fd5b6020026020010151908060018154018082558091505060019003906000526020600020016000909190919091509080519060200190610b40929190610f3d565b505b838181518110610b7b577f4e487b7100000000000000000000000000000000000000000000000000000000600052603260045260246000fd5b602002602001015182600101868381518110610bc0577f4e487b7100000000000000000000000000000000000000000000000000000000600052603260045260246000fd5b6020026020010151604051610bd59190611639565b90815260200160405180910390209080519060200190610bf6929190610f3d565b503373ffffffffffffffffffffffffffffffffffffffff167f9594a83b72e32236f222498e62e40093e7fe40b7e7bff2d43e9dcc05d2face3787878481518110610c69577f4e487b7100000000000000000000000000000000000000000000000000000000600052603260045260246000fd5b6020026020010151604051610c7f9291906117e5565b60405180910390a28080610c9290611d55565b915050610a45565b50505b50505050565b60606000602867ffffffffffffffff811115610ce8577f4e487b7100000000000000000000000000000000000000000000000000000000600052604160045260246000fd5b6040519080825280601f01601f191660200182016040528015610d1a5781602001600182028036833780820191505090505b50905060005b6014811015610ece576000816013610d389190611c30565b6008610d449190611b9b565b6002610d509190611a7d565b8573ffffffffffffffffffffffffffffffffffffffff16610d7191906119c8565b60f81b9050600060108260f81c610d8891906119f9565b60f81b905060008160f81c6010610d9f9190611bf5565b8360f81c610dad9190611c64565b60f81b9050610dbb82610ef7565b85856002610dc99190611b9b565b81518110610e00577f4e487b7100000000000000000000000000000000000000000000000000000000600052603260045260246000fd5b60200101907effffffffffffffffffffffffffffffffffffffffffffffffffffffffffffff1916908160001a905350610e3881610ef7565b856001866002610e489190611b9b565b610e52919061193b565b81518110610e89577f4e487b7100000000000000000000000000000000000000000000000000000000600052603260045260246000fd5b60200101907effffffffffffffffffffffffffffffffffffffffffffffffffffffffffffff1916908160001a9053505050508080610ec690611d55565b915050610d20565b5080604051602001610ee09190611786565b604051602081830303815290604052915050919050565b6000600a8260f81c60ff161015610f225760308260f81c610f189190611991565b60f81b9050610f38565b60578260f81c610f329190611991565b60f81b90505b919050565b828054610f4990611d23565b90600052602060002090601f016020900481019282610f6b5760008555610fb2565b82601f10610f8457805160ff1916838001178555610fb2565b82800160010185558215610fb2579182015b82811115610fb1578251825591602001919060010190610f96565b5b509050610fbf9190610fc3565b5090565b5b80821115610fdc576000816000905550600101610fc4565b5090565b6000610ff3610fee8461188d565b61185c565b9050808382526020820190508260005b85811015611033578135850161101988826110a5565b845260208401935060208301925050600181019050611003565b5050509392505050565b600061105061104b846118b9565b61185c565b90508281526020810184848401111561106857600080fd5b611073848285611ce1565b509392505050565b600082601f83011261108c57600080fd5b813561109c848260208601610fe0565b91505092915050565b600082601f8301126110b657600080fd5b81356110c684826020860161103d565b91505092915050565b6000813590506110de81611e78565b92915050565b6000602082840312156110f657600080fd5b600082013567ffffffffffffffff81111561111057600080fd5b61111c848285016110a5565b91505092915050565b60008060006060848603121561113a57600080fd5b600084013567ffffffffffffffff81111561115457600080fd5b611160868287016110a5565b935050602084013567ffffffffffffffff81111561117d57600080fd5b6111898682870161107b565b925050604084013567ffffffffffffffff8111156111a657600080fd5b6111b28682870161107b565b9150509250925092565b600080604083850312156111cf57600080fd5b600083013567ffffffffffffffff8111156111e957600080fd5b6111f5858286016110a5565b9250506020611206858286016110cf565b9150509250929050565b61121981611c98565b82525050565b600061122a826118fe565b6112348185611914565b9350611244818560208601611cf0565b80840191505092915050565b600061125b82611909565b611265818561191f565b9350611275818560208601611cf0565b61127e81611e5a565b840191505092915050565b600061129482611909565b61129e8185611930565b93506112ae818560208601611cf0565b80840191505092915050565b600081546112c781611d23565b6112d18186611930565b945060018216600081146112ec57600181146112fd57611330565b60ff19831686528186019350611330565b611306856118e9565b60005b8381101561132857815481890152600182019150602081019050611309565b838801955050505b50505092915050565b6000611346600283611930565b91507f7d7d0000000000000000000000000000000000000000000000000000000000006000830152600282019050919050565b6000611386600283611930565b91507f30780000000000000000000000000000000000000000000000000000000000006000830152600282019050919050565b60006113c6600483611930565b91507f223a2022000000000000000000000000000000000000000000000000000000006000830152600482019050919050565b6000611406601f8361191f565b91507f4b65797320616e642076616c756573206c656e677468206d69736d61746368006000830152602082019050919050565b6000611446600183611930565b91507f22000000000000000000000000000000000000000000000000000000000000006000830152600182019050919050565b6000611486600a83611930565b91507f226f776e6572223a2022000000000000000000000000000000000000000000006000830152600a82019050919050565b60006114c6600183611930565b91507f7b000000000000000000000000000000000000000000000000000000000000006000830152600182019050919050565b6000611506600c8361191f565b91507f4944206e6f7420666f756e6400000000000000000000000000000000000000006000830152602082019050919050565b6000611546600f83611930565b91507f227075626c696344617461223a207b00000000000000000000000000000000006000830152600f82019050919050565b6000611586600183611930565b91507f5d000000000000000000000000000000000000000000000000000000000000006000830152600182019050919050565b60006115c6600283611930565b91507f2c200000000000000000000000000000000000000000000000000000000000006000830152600282019050919050565b6000611606600383611930565b91507f222c2000000000000000000000000000000000000000000000000000000000006000830152600382019050919050565b60006116458284611289565b915081905092915050565b600061165c8284611289565b915061166782611339565b915081905092915050565b600061167e8286611289565b915061168982611439565b91506116958285611289565b91506116a0826113b9565b91506116ac82846112ba565b91506116b782611439565b9150819050949350505050565b60006116d08285611289565b91506116db82611479565b91506116e78284611289565b91506116f2826115f9565b91508190509392505050565b600061170a8284611289565b9150611715826114b9565b915081905092915050565b600061172c8284611289565b915061173782611539565b915081905092915050565b600061174e8284611289565b915061175982611579565b915081905092915050565b60006117708284611289565b915061177b826115b9565b915081905092915050565b600061179182611379565b915061179d828461121f565b915081905092915050565b60006020820190506117bd6000830184611210565b92915050565b600060208201905081810360008301526117dd8184611250565b905092915050565b600060408201905081810360008301526117ff8185611250565b905081810360208301526118138184611250565b90509392505050565b60006020820190508181036000830152611835816113f9565b9050919050565b60006020820190508181036000830152611855816114f9565b9050919050565b6000604051905081810181811067ffffffffffffffff8211171561188357611882611e2b565b5b8060405250919050565b600067ffffffffffffffff8211156118a8576118a7611e2b565b5b602082029050602081019050919050565b600067ffffffffffffffff8211156118d4576118d3611e2b565b5b601f19601f8301169050602081019050919050565b60008190508160005260206000209050919050565b600081519050919050565b600081519050919050565b600081905092915050565b600082825260208201905092915050565b600081905092915050565b600061194682611cca565b915061195183611cca565b9250827fffffffffffffffffffffffffffffffffffffffffffffffffffffffffffffffff0382111561198657611985611d9e565b5b828201905092915050565b600061199c82611cd4565b91506119a783611cd4565b92508260ff038211156119bd576119bc611d9e565b5b828201905092915050565b60006119d382611cca565b91506119de83611cca565b9250826119ee576119ed611dcd565b5b828204905092915050565b6000611a0482611cd4565b9150611a0f83611cd4565b925082611a1f57611a1e611dcd565b5b828204905092915050565b6000808291508390505b6001851115611a7457808604811115611a5057611a4f611d9e565b5b6001851615611a5f5780820291505b8081029050611a6d85611e6b565b9450611a34565b94509492505050565b6000611a8882611cca565b9150611a9383611cca565b9250611ac07fffffffffffffffffffffffffffffffffffffffffffffffffffffffffffffffff8484611ac8565b905092915050565b600082611ad85760019050611b94565b81611ae65760009050611b94565b8160018114611afc5760028114611b0657611b35565b6001915050611b94565b60ff841115611b1857611b17611d9e565b5b8360020a915084821115611b2f57611b2e611d9e565b5b50611b94565b5060208310610133831016604e8410600b8410161715611b6a5782820a905083811115611b6557611b64611d9e565b5b611b94565b611b778484846001611a2a565b92509050818404811115611b8e57611b8d611d9e565b5b81810290505b9392505050565b6000611ba682611cca565b9150611bb183611cca565b9250817fffffffffffffffffffffffffffffffffffffffffffffffffffffffffffffffff0483118215151615611bea57611be9611d9e565b5b828202905092915050565b6000611c0082611cd4565b9150611c0b83611cd4565b92508160ff0483118215151615611c2557611c24611d9e565b5b828202905092915050565b6000611c3b82611cca565b9150611c4683611cca565b925082821015611c5957611c58611d9e565b5b828203905092915050565b6000611c6f82611cd4565b9150611c7a83611cd4565b925082821015611c8d57611c8c611d9e565b5b828203905092915050565b6000611ca382611caa565b9050919050565b600073ffffffffffffffffffffffffffffffffffffffff82169050919050565b6000819050919050565b600060ff82169050919050565b82818337600083830152505050565b60005b83811015611d0e578082015181840152602081019050611cf3565b83811115611d1d576000848401525b50505050565b60006002820490506001821680611d3b57607f821691505b60208210811415611d4f57611d4e611dfc565b5b50919050565b6000611d6082611cca565b91507fffffffffffffffffffffffffffffffffffffffffffffffffffffffffffffffff821415611d9357611d92611d9e565b5b600182019050919050565b7f4e487b7100000000000000000000000000000000000000000000000000000000600052601160045260246000fd5b7f4e487b7100000000000000000000000000000000000000000000000000000000600052601260045260246000fd5b7f4e487b7100000000000000000000000000000000000000000000000000000000600052602260045260246000fd5b7f4e487b7100000000000000000000000000000000000000000000000000000000600052604160045260246000fd5b6000601f19601f8301169050919050565b60008160011c9050919050565b611e8181611cca565b8114611e8c57600080fd5b5056fea26469706673582212204de81a405a0849ce96535ab9583d834c2f98f5cb47f249af60e8e58eacc8ab0464736f6c63430008000033",
  "linkReferences": {},
  "deployedLinkReferences": {}
}